{
  "contractName": "LendingBorrowing",
  "abi": [
    {
      "inputs": [
        {
          "internalType": "uint256",
          "name": "_interestRate",
          "type": "uint256"
        }
      ],
      "stateMutability": "nonpayable",
      "type": "constructor"
    },
    {
      "inputs": [
        {
          "internalType": "address",
          "name": "",
          "type": "address"
        }
      ],
      "name": "balances",
      "outputs": [
        {
          "internalType": "uint256",
          "name": "",
          "type": "uint256"
        }
      ],
      "stateMutability": "view",
      "type": "function",
      "constant": true
    },
    {
      "inputs": [],
      "name": "interestRate",
      "outputs": [
        {
          "internalType": "uint256",
          "name": "",
          "type": "uint256"
        }
      ],
      "stateMutability": "view",
      "type": "function",
      "constant": true
    },
    {
      "inputs": [],
      "name": "lend",
      "outputs": [],
      "stateMutability": "payable",
      "type": "function",
      "payable": true
    },
    {
      "inputs": [
        {
          "internalType": "uint256",
          "name": "amount",
          "type": "uint256"
        }
      ],
      "name": "borrow",
      "outputs": [],
      "stateMutability": "nonpayable",
      "type": "function"
    },
    {
      "inputs": [],
      "name": "checkBalance",
      "outputs": [
        {
          "internalType": "uint256",
          "name": "",
          "type": "uint256"
        }
      ],
      "stateMutability": "view",
      "type": "function",
      "constant": true
    }
  ],
  "bytecode": "0x608060405234801561001057600080fd5b506040516106d93803806106d98339818101604052810190610032919061007a565b80600181905550506100a7565b600080fd5b6000819050919050565b61005781610044565b811461006257600080fd5b50565b6000815190506100748161004e565b92915050565b6000602082840312156100905761008f61003f565b5b600061009e84828501610065565b91505092915050565b610623806100b66000396000f3fe60806040526004361061004a5760003560e01c806327e235e31461004f5780637c3a00fd1461008c57806397dffc61146100b7578063c5ebeaec146100c1578063c71daccb146100ea575b600080fd5b34801561005b57600080fd5b506100766004803603810190610071919061037d565b610115565b60405161008391906103c3565b60405180910390f35b34801561009857600080fd5b506100a161012d565b6040516100ae91906103c3565b60405180910390f35b6100bf610133565b005b3480156100cd57600080fd5b506100e860048036038101906100e3919061040a565b61018a565b005b3480156100f657600080fd5b506100ff6102d4565b60405161010c91906103c3565b60405180910390f35b60006020528060005260406000206000915090505481565b60015481565b346000803373ffffffffffffffffffffffffffffffffffffffff1673ffffffffffffffffffffffffffffffffffffffff16815260200190815260200160002060008282546101819190610466565b92505081905550565b806000803373ffffffffffffffffffffffffffffffffffffffff1673ffffffffffffffffffffffffffffffffffffffff16815260200190815260200160002054101561020b576040517f08c379a0000000000000000000000000000000000000000000000000000000008152600401610202906104f7565b60405180910390fd5b600060646001548361021d9190610517565b6102279190610588565b826102329190610466565b90503373ffffffffffffffffffffffffffffffffffffffff166108fc829081150290604051600060405180830381858888f1935050505015801561027a573d6000803e3d6000fd5b50816000803373ffffffffffffffffffffffffffffffffffffffff1673ffffffffffffffffffffffffffffffffffffffff16815260200190815260200160002060008282546102c991906105b9565b925050819055505050565b60008060003373ffffffffffffffffffffffffffffffffffffffff1673ffffffffffffffffffffffffffffffffffffffff16815260200190815260200160002054905090565b600080fd5b600073ffffffffffffffffffffffffffffffffffffffff82169050919050565b600061034a8261031f565b9050919050565b61035a8161033f565b811461036557600080fd5b50565b60008135905061037781610351565b92915050565b6000602082840312156103935761039261031a565b5b60006103a184828501610368565b91505092915050565b6000819050919050565b6103bd816103aa565b82525050565b60006020820190506103d860008301846103b4565b92915050565b6103e7816103aa565b81146103f257600080fd5b50565b600081359050610404816103de565b92915050565b6000602082840312156104205761041f61031a565b5b600061042e848285016103f5565b91505092915050565b7f4e487b7100000000000000000000000000000000000000000000000000000000600052601160045260246000fd5b6000610471826103aa565b915061047c836103aa565b925082820190508082111561049457610493610437565b5b92915050565b600082825260208201905092915050565b7f496e73756666696369656e742066756e647320746f20626f72726f772e000000600082015250565b60006104e1601d8361049a565b91506104ec826104ab565b602082019050919050565b60006020820190508181036000830152610510816104d4565b9050919050565b6000610522826103aa565b915061052d836103aa565b925082820261053b816103aa565b9150828204841483151761055257610551610437565b5b5092915050565b7f4e487b7100000000000000000000000000000000000000000000000000000000600052601260045260246000fd5b6000610593826103aa565b915061059e836103aa565b9250826105ae576105ad610559565b5b828204905092915050565b60006105c4826103aa565b91506105cf836103aa565b92508282039050818111156105e7576105e6610437565b5b9291505056fea2646970667358221220e670fd6cb414ce80b23efb4e6638a23b031ecb4ddf0ba89a167b5c2b8181518c64736f6c63430008130033",
  "immutableReferences": {},
  "source": "// SPDX-License-Identifier: MIT\r\npragma solidity ^0.8.19;\r\n\r\ncontract LendingBorrowing {\r\n    mapping(address => uint256) public balances;\r\n    uint256 public interestRate;\r\n\r\n    constructor(uint256 _interestRate) {\r\n        interestRate = _interestRate;\r\n    }\r\n\r\n    // Lend function\r\n    function lend() external payable {\r\n        balances[msg.sender] += msg.value;\r\n    }\r\n\r\n    // Borrow function\r\n    function borrow(uint256 amount) external {\r\n        require(balances[msg.sender] >= amount, \"Insufficient funds to borrow.\");\r\n        uint256 amountWithInterest = amount + (amount * interestRate) / 100;\r\n        payable(msg.sender).transfer(amountWithInterest);\r\n        balances[msg.sender] -= amount;\r\n    }\r\n\r\n    // View function to check balance\r\n    function checkBalance() external view returns (uint256) {\r\n        return balances[msg.sender];\r\n    }\r\n}\r\n",
  "sourcePath": "C:\\Users\\vinee\\Desktop\\Mark_1\\contracts\\LendingBorrowing.sol",
  "compiler": {
    "name": "solc",
    "version": "0.8.19+commit.7dd6d404.Emscripten.clang"
  },
  "schemaVersion": "3.4.16",
  "updatedAt": "2025-04-20T13:45:51.451Z",
  "networkType": "ethereum",
  "devdoc": {
    "kind": "dev",
    "methods": {},
    "version": 1
  },
  "userdoc": {
    "kind": "user",
    "methods": {},
    "version": 1
  }
}