{
  "contractName": "LendingBorrowing",
  "abi": [
    {
      "inputs": [
        {
          "internalType": "uint256",
          "name": "_interestRate",
          "type": "uint256"
        }
      ],
      "stateMutability": "nonpayable",
      "type": "constructor"
    },
    {
      "inputs": [
        {
          "internalType": "address",
          "name": "",
          "type": "address"
        }
      ],
      "name": "borrowerLoans",
      "outputs": [
        {
          "internalType": "uint256",
          "name": "amount",
          "type": "uint256"
        },
        {
          "internalType": "uint256",
          "name": "due",
          "type": "uint256"
        },
        {
          "internalType": "bool",
          "name": "isActive",
          "type": "bool"
        }
      ],
      "stateMutability": "view",
      "type": "function",
      "constant": true
    },
    {
      "inputs": [],
      "name": "interestRate",
      "outputs": [
        {
          "internalType": "uint256",
          "name": "",
          "type": "uint256"
        }
      ],
      "stateMutability": "view",
      "type": "function",
      "constant": true
    },
    {
      "inputs": [
        {
          "internalType": "address",
          "name": "",
          "type": "address"
        }
      ],
      "name": "lenderDeposits",
      "outputs": [
        {
          "internalType": "uint256",
          "name": "",
          "type": "uint256"
        }
      ],
      "stateMutability": "view",
      "type": "function",
      "constant": true
    },
    {
      "inputs": [],
      "name": "owner",
      "outputs": [
        {
          "internalType": "address",
          "name": "",
          "type": "address"
        }
      ],
      "stateMutability": "view",
      "type": "function",
      "constant": true
    },
    {
      "inputs": [],
      "name": "totalPool",
      "outputs": [
        {
          "internalType": "uint256",
          "name": "",
          "type": "uint256"
        }
      ],
      "stateMutability": "view",
      "type": "function",
      "constant": true
    },
    {
      "inputs": [],
      "name": "lend",
      "outputs": [],
      "stateMutability": "payable",
      "type": "function",
      "payable": true
    },
    {
      "inputs": [
        {
          "internalType": "uint256",
          "name": "amount",
          "type": "uint256"
        }
      ],
      "name": "borrow",
      "outputs": [],
      "stateMutability": "nonpayable",
      "type": "function"
    },
    {
      "inputs": [],
      "name": "repay",
      "outputs": [],
      "stateMutability": "payable",
      "type": "function",
      "payable": true
    },
    {
      "inputs": [
        {
          "internalType": "address",
          "name": "user",
          "type": "address"
        }
      ],
      "name": "hasActiveLoan",
      "outputs": [
        {
          "internalType": "bool",
          "name": "",
          "type": "bool"
        }
      ],
      "stateMutability": "view",
      "type": "function",
      "constant": true
    },
    {
      "inputs": [
        {
          "internalType": "address",
          "name": "user",
          "type": "address"
        }
      ],
      "name": "getDueAmount",
      "outputs": [
        {
          "internalType": "uint256",
          "name": "",
          "type": "uint256"
        }
      ],
      "stateMutability": "view",
      "type": "function",
      "constant": true
    },
    {
      "inputs": [],
      "name": "getPoolBalance",
      "outputs": [
        {
          "internalType": "uint256",
          "name": "",
          "type": "uint256"
        }
      ],
      "stateMutability": "view",
      "type": "function",
      "constant": true
    }
  ],
  "bytecode": "0x608060405234801561001057600080fd5b50604051610ef0380380610ef0833981810160405281019061003291906100ba565b336000806101000a81548173ffffffffffffffffffffffffffffffffffffffff021916908373ffffffffffffffffffffffffffffffffffffffff16021790555080600181905550506100e7565b600080fd5b6000819050919050565b61009781610084565b81146100a257600080fd5b50565b6000815190506100b48161008e565b92915050565b6000602082840312156100d0576100cf61007f565b5b60006100de848285016100a5565b91505092915050565b610dfa806100f66000396000f3fe60806040526004361061009c5760003560e01c806399398358116100645780639939835814610148578063abd70aa214610185578063bf00a769146101b0578063c5ebeaec146101ef578063cf3c9c5b14610218578063ecfb49a3146102555761009c565b806321d4f8db146100a1578063402d8883146100de5780637c3a00fd146100e85780638da5cb5b1461011357806397dffc611461013e575b600080fd5b3480156100ad57600080fd5b506100c860048036038101906100c391906108a1565b610280565b6040516100d591906108e9565b60405180910390f35b6100e66102d9565b005b3480156100f457600080fd5b506100fd6103ed565b60405161010a919061091d565b60405180910390f35b34801561011f57600080fd5b506101286103f3565b6040516101359190610947565b60405180910390f35b610146610417565b005b34801561015457600080fd5b5061016f600480360381019061016a91906108a1565b6104cb565b60405161017c919061091d565b60405180910390f35b34801561019157600080fd5b5061019a6104e3565b6040516101a7919061091d565b60405180910390f35b3480156101bc57600080fd5b506101d760048036038101906101d291906108a1565b6104ed565b6040516101e693929190610962565b60405180910390f35b3480156101fb57600080fd5b50610216600480360381019061021191906109c5565b610524565b005b34801561022457600080fd5b5061023f600480360381019061023a91906108a1565b61075d565b60405161024c919061091d565b60405180910390f35b34801561026157600080fd5b5061026a610838565b604051610277919061091d565b60405180910390f35b6000600460008373ffffffffffffffffffffffffffffffffffffffff1673ffffffffffffffffffffffffffffffffffffffff16815260200190815260200160002060020160009054906101000a900460ff169050919050565b6000600460003373ffffffffffffffffffffffffffffffffffffffff1673ffffffffffffffffffffffffffffffffffffffff16815260200190815260200160002090508060020160009054906101000a900460ff1661036d576040517f08c379a000000000000000000000000000000000000000000000000000000000815260040161036490610a4f565b60405180910390fd5b80600101543410156103b4576040517f08c379a00000000000000000000000000000000000000000000000000000000081526004016103ab90610abb565b60405180910390fd5b34600260008282546103c69190610b0a565b9250508190555060008160020160006101000a81548160ff02191690831515021790555050565b60015481565b60008054906101000a900473ffffffffffffffffffffffffffffffffffffffff1681565b6000341161045a576040517f08c379a000000000000000000000000000000000000000000000000000000000815260040161045190610b8a565b60405180910390fd5b34600360003373ffffffffffffffffffffffffffffffffffffffff1673ffffffffffffffffffffffffffffffffffffffff16815260200190815260200160002060008282546104a99190610b0a565b9250508190555034600260008282546104c29190610b0a565b92505081905550565b60036020528060005260406000206000915090505481565b6000600254905090565b60046020528060005260406000206000915090508060000154908060010154908060020160009054906101000a900460ff16905083565b60008111610567576040517f08c379a000000000000000000000000000000000000000000000000000000000815260040161055e90610bf6565b60405180910390fd5b8060025410156105ac576040517f08c379a00000000000000000000000000000000000000000000000000000000081526004016105a390610c62565b60405180910390fd5b600460003373ffffffffffffffffffffffffffffffffffffffff1673ffffffffffffffffffffffffffffffffffffffff16815260200190815260200160002060020160009054906101000a900460ff161561063c576040517f08c379a000000000000000000000000000000000000000000000000000000000815260040161063390610cce565b60405180910390fd5b600060646001548361064e9190610cee565b6106589190610d5f565b826106639190610b0a565b9050604051806060016040528083815260200182815260200160011515815250600460003373ffffffffffffffffffffffffffffffffffffffff1673ffffffffffffffffffffffffffffffffffffffff168152602001908152602001600020600082015181600001556020820151816001015560408201518160020160006101000a81548160ff021916908315150217905550905050816002600082825461070b9190610d90565b925050819055503373ffffffffffffffffffffffffffffffffffffffff166108fc839081150290604051600060405180830381858888f19350505050158015610758573d6000803e3d6000fd5b505050565b6000600460008373ffffffffffffffffffffffffffffffffffffffff1673ffffffffffffffffffffffffffffffffffffffff16815260200190815260200160002060020160009054906101000a900460ff166107ee576040517f08c379a00000000000000000000000000000000000000000000000000000000081526004016107e590610a4f565b60405180910390fd5b600460008373ffffffffffffffffffffffffffffffffffffffff1673ffffffffffffffffffffffffffffffffffffffff168152602001908152602001600020600101549050919050565b60025481565b600080fd5b600073ffffffffffffffffffffffffffffffffffffffff82169050919050565b600061086e82610843565b9050919050565b61087e81610863565b811461088957600080fd5b50565b60008135905061089b81610875565b92915050565b6000602082840312156108b7576108b661083e565b5b60006108c58482850161088c565b91505092915050565b60008115159050919050565b6108e3816108ce565b82525050565b60006020820190506108fe60008301846108da565b92915050565b6000819050919050565b61091781610904565b82525050565b6000602082019050610932600083018461090e565b92915050565b61094181610863565b82525050565b600060208201905061095c6000830184610938565b92915050565b6000606082019050610977600083018661090e565b610984602083018561090e565b61099160408301846108da565b949350505050565b6109a281610904565b81146109ad57600080fd5b50565b6000813590506109bf81610999565b92915050565b6000602082840312156109db576109da61083e565b5b60006109e9848285016109b0565b91505092915050565b600082825260208201905092915050565b7f4e6f20616374697665206c6f616e2e0000000000000000000000000000000000600082015250565b6000610a39600f836109f2565b9150610a4482610a03565b602082019050919050565b60006020820190508181036000830152610a6881610a2c565b9050919050565b7f496e73756666696369656e742072657061796d656e742e000000000000000000600082015250565b6000610aa56017836109f2565b9150610ab082610a6f565b602082019050919050565b60006020820190508181036000830152610ad481610a98565b9050919050565b7f4e487b7100000000000000000000000000000000000000000000000000000000600052601160045260246000fd5b6000610b1582610904565b9150610b2083610904565b9250828201905080821115610b3857610b37610adb565b5b92915050565b7f4d7573742073656e642045544820746f206c656e642e00000000000000000000600082015250565b6000610b746016836109f2565b9150610b7f82610b3e565b602082019050919050565b60006020820190508181036000830152610ba381610b67565b9050919050565b7f426f72726f7720616d6f756e74206d757374206265203e20302e000000000000600082015250565b6000610be0601a836109f2565b9150610beb82610baa565b602082019050919050565b60006020820190508181036000830152610c0f81610bd3565b9050919050565b7f4e6f7420656e6f756768206c697175696469747920696e20706f6f6c2e000000600082015250565b6000610c4c601d836109f2565b9150610c5782610c16565b602082019050919050565b60006020820190508181036000830152610c7b81610c3f565b9050919050565b7f416c7265616479206861766520616e20616374697665206c6f616e2e00000000600082015250565b6000610cb8601c836109f2565b9150610cc382610c82565b602082019050919050565b60006020820190508181036000830152610ce781610cab565b9050919050565b6000610cf982610904565b9150610d0483610904565b9250828202610d1281610904565b91508282048414831517610d2957610d28610adb565b5b5092915050565b7f4e487b7100000000000000000000000000000000000000000000000000000000600052601260045260246000fd5b6000610d6a82610904565b9150610d7583610904565b925082610d8557610d84610d30565b5b828204905092915050565b6000610d9b82610904565b9150610da683610904565b9250828203905081811115610dbe57610dbd610adb565b5b9291505056fea2646970667358221220e51d44c8b07f8b1990fe483d2eeade77c1fe4047356a4f8ab681fe7e22eeabe064736f6c63430008130033",
  "immutableReferences": {},
  "source": "// SPDX-License-Identifier: MIT\r\npragma solidity ^0.8.19;\r\n\r\ncontract LendingBorrowing {\r\n    address public owner;\r\n    uint256 public interestRate;\r\n    uint256 public totalPool;\r\n\r\n    struct Loan {\r\n        uint256 amount;\r\n        uint256 due;\r\n        bool isActive;\r\n    }\r\n\r\n    mapping(address => uint256) public lenderDeposits;\r\n    mapping(address => Loan) public borrowerLoans;\r\n\r\n    constructor(uint256 _interestRate) {\r\n        owner = msg.sender;\r\n        interestRate = _interestRate;\r\n    }\r\n\r\n    // Lend ETH to the pool\r\n    function lend() external payable {\r\n        require(msg.value > 0, \"Must send ETH to lend.\");\r\n        lenderDeposits[msg.sender] += msg.value;\r\n        totalPool += msg.value;\r\n    }\r\n\r\n    // Borrow ETH from the pool\r\n    function borrow(uint256 amount) external {\r\n        require(amount > 0, \"Borrow amount must be > 0.\");\r\n        require(totalPool >= amount, \"Not enough liquidity in pool.\");\r\n        require(!borrowerLoans[msg.sender].isActive, \"Already have an active loan.\");\r\n\r\n        uint256 dueAmount = amount + (amount * interestRate) / 100;\r\n\r\n        borrowerLoans[msg.sender] = Loan({\r\n            amount: amount,\r\n            due: dueAmount,\r\n            isActive: true\r\n        });\r\n\r\n        totalPool -= amount;\r\n        payable(msg.sender).transfer(amount);\r\n    }\r\n\r\n    // Repay loan\r\n    function repay() external payable {\r\n        Loan storage loan = borrowerLoans[msg.sender];\r\n        require(loan.isActive, \"No active loan.\");\r\n        require(msg.value >= loan.due, \"Insufficient repayment.\");\r\n\r\n        totalPool += msg.value;\r\n        loan.isActive = false;\r\n    }\r\n\r\n    // View if borrower has a loan\r\n    function hasActiveLoan(address user) external view returns (bool) {\r\n        return borrowerLoans[user].isActive;\r\n    }\r\n\r\n    // Check what a user owes\r\n    function getDueAmount(address user) external view returns (uint256) {\r\n        require(borrowerLoans[user].isActive, \"No active loan.\");\r\n        return borrowerLoans[user].due;\r\n    }\r\n\r\n    // Check pool balance\r\n    function getPoolBalance() external view returns (uint256) {\r\n        return totalPool;\r\n    }\r\n}\r\n",
  "sourcePath": "C:\\Users\\vinee\\Desktop\\blockchain_proj\\blockchain_proj\\contracts\\LendingBorrowing.sol",
  "compiler": {
    "name": "solc",
    "version": "0.8.19+commit.7dd6d404.Emscripten.clang"
  },
  "schemaVersion": "3.4.16",
  "updatedAt": "2025-04-23T03:33:01.675Z",
  "networkType": "ethereum",
  "devdoc": {
    "kind": "dev",
    "methods": {},
    "version": 1
  },
  "userdoc": {
    "kind": "user",
    "methods": {},
    "version": 1
  }
}